:060000000A128A11852B93
:10000800F000030EF100031383120B188F240B1951
:0C0018003024710E8300F00E700E090001
:100200008A010A140F3982073F3406345B344F34B5
:1002100066346D347D3407347F346F3477347C3406
:1002200039345E34793471348A010A143F398207D3
:1002300000346434B234CC34D934063430344E34DF
:100240006434753406341D34303440344E345934FB
:1002500064346D3475347D34063412341D342734DF
:1002600030343834403447344E34543459345F34A5
:10027000643469346D347134753479347C34803449
:1002800006340C34123417341D34223427342B3402
:0602900030343434383430
:100600008A010A148A14FF39820785348B349234A4
:1006100098349E34A434AA34B034B634BB34C134D4
:10062000C634CB34D034D534D934DD34E234E53477
:10063000E934EC34EF34F234F534F734F934FB3484
:10064000FC34FD34FE34FE34FF34FE34FE34FD341D
:10065000FC34FB34F934F734F534F234EF34EC3451
:10066000E934E534E234DD34D934D534D034CB3414
:10067000C634C134BB34B634B034AA34A4349E3446
:10068000983492348B3485347F34793473346C34B9
:10069000663460345A3454344E34483443343D3430
:1006A000383433342E342934253421341C3419346D
:1006B000153412340F340C34093407340534033440
:1006C0000234013400340034003400340034013486
:1006D000023403340534073409340C340F34123433
:1006E000153419341C342134253429342E34333450
:1006F00038343D34433448344E3454345A346034FE
:1007000066346C34733479347F34AA2316241D2460
:100710009E232A240313831203138312B60136087F
:100720001421B2003608A0003B0889000324AA0166
:10073000AC01AE01B001F123FA23922B031383160F
:100740001617961716169616161403138312060814
:100750000B10080083160317880189018316031301
:100760000617861706168616061485018801870166
:1007700089018113151795171516951615148312EF
:100780000313A501B301B401BA01B901BB01BC0156
:10079000B501A001A101A201A301A401A601A70125
:1007A000A801A901AA01AC01AE01B001B601B701CF
:1007B000B801B20188018701890185010800E8308C
:1007C000A002B00A0318DF2BB003E830A00708002E
:1007D0006430A002AE0A0318E82BAE036430A00711
:1007E00008000A30A002AC0A0318F12BAC030A304F
:1007F000A00708000130A002AA0A0318FA2BAA03D6
:100800000130A007080000300021A8003608003E93
:1008100003190C2C00300D2C06300021A9002C08E7
:100820000021A7002A080021A60008000313831650
:100830000F178F160F160F1408000313831681125B
:1008400081110115811401100313831232088100F4
:100850000B1108008B160B118B178B150B10080052
:1008600003138312320881000B1138246B24080013
:100870003A08003C031954243A08013C031949245E
:100880003A08023C03195E243A08033C03194B243E
:100890000800850A0800A40A24080023850024080B
:1008A0007F3C0319A401080033185A2C572CFF3041
:1008B00085005B2C85010130B30608003418672CD5
:1008C000850A0508FE3C031D6A2C3414682C850B30
:1008D0006A2CB40108000810881008118811251C22
:1008E000772CA5187D2C2519832CA519892C28086F
:1008F00087000814A5142514080029088700881407
:10090000A510251508002608870008152511A5152E
:1009100008002708870088152510A5110800031373
:100920008312B9010618982CBA0A0330BA0585015A
:10093000061A9C2C0130BB00861AA02C0230BB008A
:10094000061BF624061FDE24861BF824861FE924D6
:100950003608323C0318AD2CB6013608043C0318A7
:10096000C12C3608093C0318C32C3608133C031865
:10097000C52C3608273C0318C72C3608323C031810
:10098000C92C3914CA2CB914CA2C3915CA2CB9155A
:10099000CA2C39163918FA24B918042539190E2524
:1009A000B9191825391A22250B1008003C1CDD2C1A
:1009B000BA0A0330BA05BC0185010800BC1CE82C4A
:1009C0003B18B60ABB1CE72CB60A0430B607BC01BC
:1009D00008003C1DF32C3B18B603BB1CF22CB603DD
:1009E0000430B602BC0108003C140800BC14080026
:1009F0003C1508001630031383168100031383127D
:100A000036081421B2000800133003138316810046
:100A10000313831236081421B200080012300313A6
:100A2000831681000313831236081421B2000800D4
:100A30001130031383168100031383123608142127
:100A4000B2000800103003138316810003138312D1
:080A500036081421B200080071
:04400E00D420FF3F7C
:00000001FF
